{
  "contractName": "BookMarket",
  "abi": [
    {
      "anonymous": false,
      "inputs": [
        {
          "indexed": true,
          "internalType": "address",
          "name": "owner",
          "type": "address"
        },
        {
          "indexed": true,
          "internalType": "uint256",
          "name": "index",
          "type": "uint256"
        }
      ],
      "name": "BookAdded",
      "type": "event"
    },
    {
      "anonymous": false,
      "inputs": [
        {
          "indexed": true,
          "internalType": "address",
          "name": "buyer",
          "type": "address"
        },
        {
          "indexed": true,
          "internalType": "uint256",
          "name": "index",
          "type": "uint256"
        }
      ],
      "name": "BookPurchased",
      "type": "event"
    },
    {
      "inputs": [
        {
          "internalType": "uint256",
          "name": "",
          "type": "uint256"
        }
      ],
      "name": "books",
      "outputs": [
        {
          "internalType": "string",
          "name": "title",
          "type": "string"
        },
        {
          "internalType": "string",
          "name": "author",
          "type": "string"
        },
        {
          "internalType": "uint256",
          "name": "price",
          "type": "uint256"
        },
        {
          "internalType": "string",
          "name": "description",
          "type": "string"
        },
        {
          "internalType": "string",
          "name": "coverHash",
          "type": "string"
        },
        {
          "internalType": "string",
          "name": "fileHash",
          "type": "string"
        },
        {
          "internalType": "address",
          "name": "owner",
          "type": "address"
        }
      ],
      "stateMutability": "view",
      "type": "function",
      "constant": true
    },
    {
      "inputs": [
        {
          "internalType": "address",
          "name": "",
          "type": "address"
        },
        {
          "internalType": "uint256",
          "name": "",
          "type": "uint256"
        }
      ],
      "name": "booksOwnedByUser",
      "outputs": [
        {
          "internalType": "uint256",
          "name": "",
          "type": "uint256"
        }
      ],
      "stateMutability": "view",
      "type": "function",
      "constant": true
    },
    {
      "inputs": [
        {
          "internalType": "address",
          "name": "",
          "type": "address"
        },
        {
          "internalType": "uint256",
          "name": "",
          "type": "uint256"
        }
      ],
      "name": "booksPurchasedByUser",
      "outputs": [
        {
          "internalType": "uint256",
          "name": "",
          "type": "uint256"
        }
      ],
      "stateMutability": "view",
      "type": "function",
      "constant": true
    },
    {
      "inputs": [
        {
          "internalType": "string",
          "name": "_title",
          "type": "string"
        },
        {
          "internalType": "string",
          "name": "_author",
          "type": "string"
        },
        {
          "internalType": "uint256",
          "name": "_price",
          "type": "uint256"
        },
        {
          "internalType": "string",
          "name": "_description",
          "type": "string"
        },
        {
          "internalType": "string",
          "name": "_coverHash",
          "type": "string"
        },
        {
          "internalType": "string",
          "name": "_fileHash",
          "type": "string"
        }
      ],
      "name": "addBook",
      "outputs": [],
      "stateMutability": "nonpayable",
      "type": "function"
    },
    {
      "inputs": [],
      "name": "getBooksCount",
      "outputs": [
        {
          "internalType": "uint256",
          "name": "",
          "type": "uint256"
        }
      ],
      "stateMutability": "view",
      "type": "function",
      "constant": true
    },
    {
      "inputs": [
        {
          "internalType": "uint256",
          "name": "_index",
          "type": "uint256"
        }
      ],
      "name": "getBookByIndex",
      "outputs": [
        {
          "internalType": "string",
          "name": "",
          "type": "string"
        },
        {
          "internalType": "string",
          "name": "",
          "type": "string"
        },
        {
          "internalType": "uint256",
          "name": "",
          "type": "uint256"
        },
        {
          "internalType": "string",
          "name": "",
          "type": "string"
        },
        {
          "internalType": "string",
          "name": "",
          "type": "string"
        },
        {
          "internalType": "string",
          "name": "",
          "type": "string"
        },
        {
          "internalType": "address",
          "name": "",
          "type": "address"
        }
      ],
      "stateMutability": "view",
      "type": "function",
      "constant": true
    },
    {
      "inputs": [
        {
          "internalType": "uint256",
          "name": "_index",
          "type": "uint256"
        }
      ],
      "name": "buyBook",
      "outputs": [],
      "stateMutability": "payable",
      "type": "function",
      "payable": true
    },
    {
      "inputs": [
        {
          "internalType": "address",
          "name": "_user",
          "type": "address"
        }
      ],
      "name": "getBooksOwnedByUser",
      "outputs": [
        {
          "internalType": "uint256[]",
          "name": "",
          "type": "uint256[]"
        }
      ],
      "stateMutability": "view",
      "type": "function",
      "constant": true
    },
    {
      "inputs": [
        {
          "internalType": "address",
          "name": "_user",
          "type": "address"
        }
      ],
      "name": "getBooksPurchasedByUser",
      "outputs": [
        {
          "internalType": "uint256[]",
          "name": "",
          "type": "uint256[]"
        }
      ],
      "stateMutability": "view",
      "type": "function",
      "constant": true
    }
  ],
  "bytecode": "0x6080604052348015600f57600080fd5b506119cc8061001f6000396000f3fe6080604052600436106100865760003560e01c8063687440461161005957806368744046146101715780636ee26566146101b45780638f18282f146101d0578063a2248b1b1461020d578063dfd83d2a1461024a57610086565b80631b80bd871461008b5780632ba53db2146100b45780634397534c146100f75780634e06664014610134575b600080fd5b34801561009757600080fd5b506100b260048036038101906100ad9190611113565b610275565b005b3480156100c057600080fd5b506100db60048036038101906100d6919061122c565b61047e565b6040516100ee9796959493929190611328565b60405180910390f35b34801561010357600080fd5b5061011e600480360381019061011991906113e6565b610877565b60405161012b9190611426565b60405180910390f35b34801561014057600080fd5b5061015b60048036038101906101569190611441565b6108a8565b604051610168919061152c565b60405180910390f35b34801561017d57600080fd5b506101986004803603810190610193919061122c565b61093f565b6040516101ab9796959493929190611328565b60405180910390f35b6101ce60048036038101906101c9919061122c565b610c59565b005b3480156101dc57600080fd5b506101f760048036038101906101f29190611441565b610eaf565b604051610204919061152c565b60405180910390f35b34801561021957600080fd5b50610234600480360381019061022f91906113e6565b610f46565b6040516102419190611426565b60405180910390f35b34801561025657600080fd5b5061025f610f77565b60405161026c9190611426565b60405180910390f35b60006040518060e001604052808881526020018781526020018681526020018581526020018481526020018381526020013373ffffffffffffffffffffffffffffffffffffffff16815250908060018154018082558091505060019003906000526020600020906007020160009091909190915060008201518160000190816102fe919061175a565b506020820151816001019081610314919061175a565b50604082015181600201556060820151816003019081610334919061175a565b50608082015181600401908161034a919061175a565b5060a0820151816005019081610360919061175a565b5060c08201518160060160006101000a81548173ffffffffffffffffffffffffffffffffffffffff021916908373ffffffffffffffffffffffffffffffffffffffff1602179055505050600160003373ffffffffffffffffffffffffffffffffffffffff1673ffffffffffffffffffffffffffffffffffffffff16815260200190815260200160002060016000805490506103fb919061185b565b90806001815401808255809150506001900390600052602060002001600090919091909150556001600080549050610433919061185b565b3373ffffffffffffffffffffffffffffffffffffffff167fb3b632dccd3c0d1ff36cf6504e2f86889661ce180b2f8bbd5656bcb4452ad89960405160405180910390a3505050505050565b606080600060608060606000808054905088106104d0576040517f08c379a00000000000000000000000000000000000000000000000000000000081526004016104c7906118db565b60405180910390fd5b60008089815481106104e5576104e46118fb565b5b90600052602060002090600702016040518060e001604052908160008201805461050e9061157d565b80601f016020809104026020016040519081016040528092919081815260200182805461053a9061157d565b80156105875780601f1061055c57610100808354040283529160200191610587565b820191906000526020600020905b81548152906001019060200180831161056a57829003601f168201915b505050505081526020016001820180546105a09061157d565b80601f01602080910402602001604051908101604052809291908181526020018280546105cc9061157d565b80156106195780601f106105ee57610100808354040283529160200191610619565b820191906000526020600020905b8154815290600101906020018083116105fc57829003601f168201915b505050505081526020016002820154815260200160038201805461063c9061157d565b80601f01602080910402602001604051908101604052809291908181526020018280546106689061157d565b80156106b55780601f1061068a576101008083540402835291602001916106b5565b820191906000526020600020905b81548152906001019060200180831161069857829003601f168201915b505050505081526020016004820180546106ce9061157d565b80601f01602080910402602001604051908101604052809291908181526020018280546106fa9061157d565b80156107475780601f1061071c57610100808354040283529160200191610747565b820191906000526020600020905b81548152906001019060200180831161072a57829003601f168201915b505050505081526020016005820180546107609061157d565b80601f016020809104026020016040519081016040528092919081815260200182805461078c9061157d565b80156107d95780601f106107ae576101008083540402835291602001916107d9565b820191906000526020600020905b8154815290600101906020018083116107bc57829003601f168201915b505050505081526020016006820160009054906101000a900473ffffffffffffffffffffffffffffffffffffffff1673ffffffffffffffffffffffffffffffffffffffff1673ffffffffffffffffffffffffffffffffffffffff16815250509050806000015181602001518260400151836060015184608001518560a001518660c00151975097509750975097509750975050919395979092949650565b6001602052816000526040600020818154811061089357600080fd5b90600052602060002001600091509150505481565b6060600160008373ffffffffffffffffffffffffffffffffffffffff1673ffffffffffffffffffffffffffffffffffffffff16815260200190815260200160002080548060200260200160405190810160405280929190818152602001828054801561093357602002820191906000526020600020905b81548152602001906001019080831161091f575b50505050509050919050565b6000818154811061094f57600080fd5b90600052602060002090600702016000915090508060000180546109729061157d565b80601f016020809104026020016040519081016040528092919081815260200182805461099e9061157d565b80156109eb5780601f106109c0576101008083540402835291602001916109eb565b820191906000526020600020905b8154815290600101906020018083116109ce57829003601f168201915b505050505090806001018054610a009061157d565b80601f0160208091040260200160405190810160405280929190818152602001828054610a2c9061157d565b8015610a795780601f10610a4e57610100808354040283529160200191610a79565b820191906000526020600020905b815481529060010190602001808311610a5c57829003601f168201915b505050505090806002015490806003018054610a949061157d565b80601f0160208091040260200160405190810160405280929190818152602001828054610ac09061157d565b8015610b0d5780601f10610ae257610100808354040283529160200191610b0d565b820191906000526020600020905b815481529060010190602001808311610af057829003601f168201915b505050505090806004018054610b229061157d565b80601f0160208091040260200160405190810160405280929190818152602001828054610b4e9061157d565b8015610b9b5780601f10610b7057610100808354040283529160200191610b9b565b820191906000526020600020905b815481529060010190602001808311610b7e57829003601f168201915b505050505090806005018054610bb09061157d565b80601f0160208091040260200160405190810160405280929190818152602001828054610bdc9061157d565b8015610c295780601f10610bfe57610100808354040283529160200191610c29565b820191906000526020600020905b815481529060010190602001808311610c0c57829003601f168201915b5050505050908060060160009054906101000a900473ffffffffffffffffffffffffffffffffffffffff16905087565b6000805490508110610ca0576040517f08c379a0000000000000000000000000000000000000000000000000000000008152600401610c97906118db565b60405180910390fd5b6000808281548110610cb557610cb46118fb565b5b906000526020600020906007020190508060020154341015610d0c576040517f08c379a0000000000000000000000000000000000000000000000000000000008152600401610d0390611976565b60405180910390fd5b600260003373ffffffffffffffffffffffffffffffffffffffff1673ffffffffffffffffffffffffffffffffffffffff168152602001908152602001600020829080600181540180825580915050600190039060005260206000200160009091909190915055600160008260060160009054906101000a900473ffffffffffffffffffffffffffffffffffffffff1673ffffffffffffffffffffffffffffffffffffffff1673ffffffffffffffffffffffffffffffffffffffff1681526020019081526020016000208290806001815401808255809150506001900390600052602060002001600090919091909150558060060160009054906101000a900473ffffffffffffffffffffffffffffffffffffffff1673ffffffffffffffffffffffffffffffffffffffff166108fc349081150290604051600060405180830381858888f19350505050158015610e66573d6000803e3d6000fd5b50813373ffffffffffffffffffffffffffffffffffffffff167f3d5c9af7e63226b62cddcec17f8bac449894f35126513c4f14022b8c20ae161b60405160405180910390a35050565b6060600260008373ffffffffffffffffffffffffffffffffffffffff1673ffffffffffffffffffffffffffffffffffffffff168152602001908152602001600020805480602002602001604051908101604052809291908181526020018280548015610f3a57602002820191906000526020600020905b815481526020019060010190808311610f26575b50505050509050919050565b60026020528160005260406000208181548110610f6257600080fd5b90600052602060002001600091509150505481565b60008080549050905090565b6000604051905090565b600080fd5b600080fd5b600080fd5b600080fd5b6000601f19601f8301169050919050565b7f4e487b7100000000000000000000000000000000000000000000000000000000600052604160045260246000fd5b610fea82610fa1565b810181811067ffffffffffffffff8211171561100957611008610fb2565b5b80604052505050565b600061101c610f83565b90506110288282610fe1565b919050565b600067ffffffffffffffff82111561104857611047610fb2565b5b61105182610fa1565b9050602081019050919050565b82818337600083830152505050565b600061108061107b8461102d565b611012565b90508281526020810184848401111561109c5761109b610f9c565b5b6110a784828561105e565b509392505050565b600082601f8301126110c4576110c3610f97565b5b81356110d484826020860161106d565b91505092915050565b6000819050919050565b6110f0816110dd565b81146110fb57600080fd5b50565b60008135905061110d816110e7565b92915050565b60008060008060008060c087890312156111305761112f610f8d565b5b600087013567ffffffffffffffff81111561114e5761114d610f92565b5b61115a89828a016110af565b965050602087013567ffffffffffffffff81111561117b5761117a610f92565b5b61118789828a016110af565b955050604061119889828a016110fe565b945050606087013567ffffffffffffffff8111156111b9576111b8610f92565b5b6111c589828a016110af565b935050608087013567ffffffffffffffff8111156111e6576111e5610f92565b5b6111f289828a016110af565b92505060a087013567ffffffffffffffff81111561121357611212610f92565b5b61121f89828a016110af565b9150509295509295509295565b60006020828403121561124257611241610f8d565b5b6000611250848285016110fe565b91505092915050565b600081519050919050565b600082825260208201905092915050565b60005b83811015611293578082015181840152602081019050611278565b60008484015250505050565b60006112aa82611259565b6112b48185611264565b93506112c4818560208601611275565b6112cd81610fa1565b840191505092915050565b6112e1816110dd565b82525050565b600073ffffffffffffffffffffffffffffffffffffffff82169050919050565b6000611312826112e7565b9050919050565b61132281611307565b82525050565b600060e0820190508181036000830152611342818a61129f565b90508181036020830152611356818961129f565b905061136560408301886112d8565b8181036060830152611377818761129f565b9050818103608083015261138b818661129f565b905081810360a083015261139f818561129f565b90506113ae60c0830184611319565b98975050505050505050565b6113c381611307565b81146113ce57600080fd5b50565b6000813590506113e0816113ba565b92915050565b600080604083850312156113fd576113fc610f8d565b5b600061140b858286016113d1565b925050602061141c858286016110fe565b9150509250929050565b600060208201905061143b60008301846112d8565b92915050565b60006020828403121561145757611456610f8d565b5b6000611465848285016113d1565b91505092915050565b600081519050919050565b600082825260208201905092915050565b6000819050602082019050919050565b6114a3816110dd565b82525050565b60006114b5838361149a565b60208301905092915050565b6000602082019050919050565b60006114d98261146e565b6114e38185611479565b93506114ee8361148a565b8060005b8381101561151f57815161150688826114a9565b9750611511836114c1565b9250506001810190506114f2565b5085935050505092915050565b6000602082019050818103600083015261154681846114ce565b905092915050565b7f4e487b7100000000000000000000000000000000000000000000000000000000600052602260045260246000fd5b6000600282049050600182168061159557607f821691505b6020821081036115a8576115a761154e565b5b50919050565b60008190508160005260206000209050919050565b60006020601f8301049050919050565b600082821b905092915050565b6000600883026116107fffffffffffffffffffffffffffffffffffffffffffffffffffffffffffffffff826115d3565b61161a86836115d3565b95508019841693508086168417925050509392505050565b6000819050919050565b600061165761165261164d846110dd565b611632565b6110dd565b9050919050565b6000819050919050565b6116718361163c565b61168561167d8261165e565b8484546115e0565b825550505050565b600090565b61169a61168d565b6116a5818484611668565b505050565b5b818110156116c9576116be600082611692565b6001810190506116ab565b5050565b601f82111561170e576116df816115ae565b6116e8846115c3565b810160208510156116f7578190505b61170b611703856115c3565b8301826116aa565b50505b505050565b600082821c905092915050565b600061173160001984600802611713565b1980831691505092915050565b600061174a8383611720565b9150826002028217905092915050565b61176382611259565b67ffffffffffffffff81111561177c5761177b610fb2565b5b611786825461157d565b6117918282856116cd565b600060209050601f8311600181146117c457600084156117b2578287015190505b6117bc858261173e565b865550611824565b601f1984166117d2866115ae565b60005b828110156117fa578489015182556001820191506020850194506020810190506117d5565b868310156118175784890151611813601f891682611720565b8355505b6001600288020188555050505b505050505050565b7f4e487b7100000000000000000000000000000000000000000000000000000000600052601160045260246000fd5b6000611866826110dd565b9150611871836110dd565b92508282039050818111156118895761188861182c565b5b92915050565b7f426f6f6b20696e646578206f7574206f6620626f756e64730000000000000000600082015250565b60006118c5601883611264565b91506118d08261188f565b602082019050919050565b600060208201905081810360008301526118f4816118b8565b9050919050565b7f4e487b7100000000000000000000000000000000000000000000000000000000600052603260045260246000fd5b7f496e73756666696369656e742066756e64730000000000000000000000000000600082015250565b6000611960601283611264565b915061196b8261192a565b602082019050919050565b6000602082019050818103600083015261198f81611953565b905091905056fea26469706673582212204a0436caa65f88c2ccf87d925c68ab966e1af9476dc488bd00d1f2778bbc0ba464736f6c63430008190033",
  "immutableReferences": {},
  "source": "// BookMarket.sol\n\npragma solidity ^0.8.19;\n\ncontract BookMarket {\n    struct Book {\n        string title;\n        string author;\n        uint256 price;\n        string description;\n        string coverHash;\n        string fileHash;\n        address owner;\n    }\n\n    Book[] public books;\n\n    mapping(address => uint256[]) public booksOwnedByUser;\n    mapping(address => uint256[]) public booksPurchasedByUser;\n\n    event BookAdded(address indexed owner, uint256 indexed index);\n    event BookPurchased(address indexed buyer, uint256 indexed index);\n\n    function addBook(\n        string memory _title,\n        string memory _author,\n        uint256 _price,\n        string memory _description,\n        string memory _coverHash,\n        string memory _fileHash\n    ) public {\n        books.push(\n            Book(\n                _title,\n                _author,\n                _price,\n                _description,\n                _coverHash,\n                _fileHash,\n                msg.sender\n            )\n        );\n        booksOwnedByUser[msg.sender].push(books.length - 1);\n        emit BookAdded(msg.sender, books.length - 1);\n    }\n\n    function getBooksCount() public view returns (uint256) {\n        return books.length;\n    }\n\n    function getBookByIndex(\n        uint256 _index\n    )\n        public\n        view\n        returns (\n            string memory,\n            string memory,\n            uint256,\n            string memory,\n            string memory,\n            string memory,\n            address\n        )\n    {\n        require(_index < books.length, \"Book index out of bounds\");\n        Book memory book = books[_index];\n        return (\n            book.title,\n            book.author,\n            book.price,\n            book.description,\n            book.coverHash,\n            book.fileHash,\n            book.owner\n        );\n    }\n\n    function buyBook(uint256 _index) public payable {\n        require(_index < books.length, \"Book index out of bounds\");\n        Book storage book = books[_index];\n        require(msg.value >= book.price, \"Insufficient funds\");\n\n        booksPurchasedByUser[msg.sender].push(_index);\n        booksOwnedByUser[book.owner].push(_index);\n\n        payable(book.owner).transfer(msg.value);\n\n        emit BookPurchased(msg.sender, _index);\n    }\n\n    function getBooksOwnedByUser(\n        address _user\n    ) public view returns (uint256[] memory) {\n        return booksOwnedByUser[_user];\n    }\n\n    function getBooksPurchasedByUser(\n        address _user\n    ) public view returns (uint256[] memory) {\n        return booksPurchasedByUser[_user];\n    }\n}\n",
  "sourcePath": "/Users/antoine/Desktop/ebookStore/contracts/BookMarket.sol",
  "compiler": {
    "name": "solc",
    "version": "0.8.25+commit.b61c2a91.Emscripten.clang"
  },
  "schemaVersion": "3.4.16",
  "updatedAt": "2024-04-21T16:14:20.908Z",
  "networkType": "ethereum",
  "devdoc": {
    "kind": "dev",
    "methods": {},
    "version": 1
  },
  "userdoc": {
    "kind": "user",
    "methods": {},
    "version": 1
  }
}